{"abi":[{"type":"constructor","inputs":[{"name":"initMessage","type":"string","internalType":"string"}],"stateMutability":"nonpayable"},{"type":"function","name":"clearAllFiles","inputs":[{"name":"userAddress","type":"address","internalType":"address"}],"outputs":[{"name":"","type":"string[]","internalType":"string[]"},{"name":"","type":"string[]","internalType":"string[]"},{"name":"","type":"string[]","internalType":"string[]"},{"name":"","type":"uint256[]","internalType":"uint256[]"},{"name":"","type":"string[]","internalType":"string[]"},{"name":"","type":"string[]","internalType":"string[]"},{"name":"","type":"uint256[]","internalType":"uint256[]"}],"stateMutability":"nonpayable"},{"type":"function","name":"deleteUserFile","inputs":[{"name":"userAddress","type":"address","internalType":"address"},{"name":"cid","type":"string","internalType":"string"}],"outputs":[{"name":"cids","type":"string[]","internalType":"string[]"},{"name":"fileNames","type":"string[]","internalType":"string[]"},{"name":"fileTypes","type":"string[]","internalType":"string[]"},{"name":"fileSizes","type":"uint256[]","internalType":"uint256[]"},{"name":"fileContents","type":"string[]","internalType":"string[]"},{"name":"dates","type":"string[]","internalType":"string[]"},{"name":"scores","type":"uint256[]","internalType":"uint256[]"}],"stateMutability":"nonpayable"},{"type":"function","name":"getFiles","inputs":[{"name":"user","type":"address","internalType":"address"}],"outputs":[{"name":"cids","type":"string[]","internalType":"string[]"},{"name":"fileNames","type":"string[]","internalType":"string[]"},{"name":"fileTypes","type":"string[]","internalType":"string[]"},{"name":"fileSizes","type":"uint256[]","internalType":"uint256[]"},{"name":"fileContents","type":"string[]","internalType":"string[]"},{"name":"dates","type":"string[]","internalType":"string[]"},{"name":"scores","type":"uint256[]","internalType":"uint256[]"}],"stateMutability":"view"},{"type":"function","name":"message","inputs":[],"outputs":[{"name":"","type":"string","internalType":"string"}],"stateMutability":"view"},{"type":"function","name":"storeFileForUser","inputs":[{"name":"userAddress","type":"address","internalType":"address"},{"name":"cid","type":"string","internalType":"string"},{"name":"fileName","type":"string","internalType":"string"},{"name":"fileType","type":"string","internalType":"string"},{"name":"fileSize","type":"uint256","internalType":"uint256"},{"name":"fileContent","type":"string","internalType":"string"},{"name":"date","type":"string","internalType":"string"},{"name":"score","type":"uint256","internalType":"uint256"}],"outputs":[],"stateMutability":"nonpayable"},{"type":"function","name":"update","inputs":[{"name":"newMessage","type":"string","internalType":"string"}],"outputs":[],"stateMutability":"nonpayable"},{"type":"event","name":"AllDataCleared","inputs":[],"anonymous":false},{"type":"event","name":"AllFilesCleared","inputs":[{"name":"userAddress","type":"address","indexed":true,"internalType":"address"}],"anonymous":false},{"type":"event","name":"FileDeleted","inputs":[{"name":"userAddress","type":"address","indexed":true,"internalType":"address"},{"name":"cid","type":"string","indexed":false,"internalType":"string"}],"anonymous":false},{"type":"event","name":"FileStored","inputs":[{"name":"user","type":"address","indexed":true,"internalType":"address"},{"name":"cid","type":"string","indexed":false,"internalType":"string"},{"name":"fileName","type":"string","indexed":false,"internalType":"string"},{"name":"fileType","type":"string","indexed":false,"internalType":"string"},{"name":"fileSize","type":"uint256","indexed":false,"internalType":"uint256"},{"name":"fileContent","type":"string","indexed":false,"internalType":"string"},{"name":"date","type":"string","indexed":false,"internalType":"string"},{"name":"score","type":"uint256","indexed":false,"internalType":"uint256"}],"anonymous":false},{"type":"event","name":"UpdatedMessages","inputs":[{"name":"oldStr","type":"string","indexed":false,"internalType":"string"},{"name":"newStr","type":"string","indexed":false,"internalType":"string"}],"anonymous":false}],"bytecode":{"object":"0x6080604052346101f457611a1e80380380610019816101f8565b9283398101906020818303126101f4578051906001600160401b0382116101f4570181601f820112156101f4578051906001600160401b0382116101e05761006a601f8301601f19166020016101f8565b92828452602083830101116101f457815f9260208093018386015e8301015280516001600160401b0381116101e0575f54600181811c911680156101d6575b60208210146101c257601f8111610160575b50602091601f8211600114610102579181925f926100f7575b50508160011b915f199060031b1c1916175f555b604051611800908161021e8239f35b015190505f806100d4565b601f198216925f8052805f20915f5b85811061014857508360019510610130575b505050811b015f556100e8565b01515f1960f88460031b161c191690555f8080610123565b91926020600181928685015181550194019201610111565b5f80527f290decd9548b62a8d60345a988386fc84ba6bc95484008f6362f93160ef3e563601f830160051c810191602084106101b8575b601f0160051c01905b8181106101ad57506100bb565b5f81556001016101a0565b9091508190610197565b634e487b7160e01b5f52602260045260245ffd5b90607f16906100a9565b634e487b7160e01b5f52604160045260245ffd5b5f80fd5b6040519190601f01601f191682016001600160401b038111838210176101e05760405256fe60806040526004361015610011575f80fd5b5f3560e01c80633d7403a3146110035780633e2d245814610e50578063433bf37b14610c98578063c32df85c14610775578063d4277f98146100925763e21f37ce1461005b575f80fd5b3461008e575f36600319011261008e5761008a6100766113de565b604051918291602083526020830190611276565b0390f35b5f80fd5b3461008e5761010036600319011261008e576100ac611260565b6024356001600160401b03811161008e576100cb90369060040161120b565b6044356001600160401b03811161008e576100ea90369060040161120b565b916064356001600160401b03811161008e5761010a90369060040161120b565b60843560a4356001600160401b03811161008e5761012c90369060040161120b565b60c4356001600160401b03811161008e5761014b90369060040161120b565b9260e4359486511561073a578751156106f5578151156106b05760018060a01b031696875f52600160205260405f206040519060e082018281106001600160401b038211176104f257604052888252602082018381526040830185815260608401888152608085019188835260a08601938b855260c08701958d87528054680100000000000000008110156104f2576101e9916001820181556116aa565b97909761069d57518051906001600160401b0382116104f257610216826102108b546113a6565b8b611546565b602090601f831160011461063a5761024592915f9183610446575b50508160011b915f199060031b1c19161790565b87555b51805160018801916001600160401b0382116104f2576102728261026c85546113a6565b85611546565b602090601f83116001146105d7576102a092915f91836104465750508160011b915f199060031b1c19161790565b90555b51805160028701916001600160401b0382116104f2576102c78261026c85546113a6565b602090601f8311600114610574576102f592915f91836104465750508160011b915f199060031b1c19161790565b90555b51600385015551805160048501916001600160401b0382116104f2576103228261026c85546113a6565b602090601f83116001146105115761035092915f91836105065750508160011b915f199060031b1c19161790565b90555b51805160058401916001600160401b0382116104f2576103778261026c85546113a6565b602090601f831160011461045157956103fe9b9995600661043b9a967fad8603a3fe1d55f26ce13346f2c7f31f8624ac0b9cf6f1a0586469eec64732409f9d9a95966103e38861041a9961040c9861042d9e5f926104465750508160011b915f199060031b1c19161790565b90555b519101556040519b8c9b60e08d5260e08d0190611276565b908b820360208d0152611276565b9089820360408b0152611276565b9160608801528682036080880152611276565b9084820360a0860152611276565b9060c08301520390a2005b015190505f80610231565b90601f19831691845f52815f20925f5b8181106104da575061043b9a967fad8603a3fe1d55f26ce13346f2c7f31f8624ac0b9cf6f1a0586469eec64732409f9d9a95966103fe9f9d99938861040c9761042d9d9760019361041a9c600698106104c2575b505050811b0190556103e6565b01515f1960f88460031b161c191690555f80806104b5565b92936020600181928786015181550195019301610461565b634e487b7160e01b5f52604160045260245ffd5b015190508f80610231565b90601f19831691845f52815f20925f5b81811061055c5750908460019594939210610544575b505050811b019055610353565b01515f1960f88460031b161c191690558e8080610537565b92936020600181928786015181550195019301610521565b90601f19831691845f52815f20925f5b8181106105bf57509084600195949392106105a7575b505050811b0190556102f8565b01515f1960f88460031b161c191690555f808061059a565b92936020600181928786015181550195019301610584565b90601f19831691845f52815f20925f5b818110610622575090846001959493921061060a575b505050811b0190556102a3565b01515f1960f88460031b161c191690555f80806105fd565b929360206001819287860151815501950193016105e7565b90601f198316918a5f52815f20925f5b818110610685575090846001959493921061066d575b505050811b018755610248565b01515f1960f88460031b161c191690555f8080610660565b9293602060018192878601518155019501930161064a565b634e487b7160e01b5f525f60045260245ffd5b60405162461bcd60e51b815260206004820152601960248201527f46696c6520747970652063616e6e6f7420626520656d707479000000000000006044820152606490fd5b60405162461bcd60e51b815260206004820152601960248201527f46696c65206e616d652063616e6e6f7420626520656d707479000000000000006044820152606490fd5b60405162461bcd60e51b81526020600482015260136024820152724349442063616e6e6f7420626520656d70747960681b6044820152606490fd5b3461008e57604036600319011261008e5761078e611260565b6024356001600160401b03811161008e576107ad90369060040161120b565b6001600160a01b039091169033829003610c5357815f5260016020526107d860405f2054151561157e565b815f52600160205260405f2054905f915f9060208301915b855f52600160205260405f2054811015610c4957855f5260016020526108198160405f206116aa565b506040516020810191815f825492610830846113a6565b9360018116908115610c2b5750600114610bec575b50610859925003601f1981018352826111ea565b51902060405160208101906108866020828951808a875e81015f838201520301601f1981018352826111ea565b51902014610896576001016107f0565b929350505060015b15610b9d57825f52600160205260405f20545f198101908111610b89578110610ad5575b50815f52600160205260405f2080548015610ac1575f1901916108e583836116aa565b91909161069d5784937f14a51c77a00d5c4c3ccc7a4df74f169088c4d4d04859d176729645e53c7b895c935f60068561092061096d976115ca565b61092c600182016115ca565b610938600282016115ca565b82600382015561094a600482016115ca565b610956600582016115ca565b015555604051918291602083526020830190611276565b0390a2805f52600160205260405f2054906109878261162f565b6109908361162f565b9161099a8461162f565b6109a385611678565b6109ac8661162f565b906109b68761162f565b926109c088611678565b945f5b8981106109dd5750506040519750879661008a9688611325565b600190825f528160205260066109f68260405f206116aa565b50610a0081611492565b610a0a848d6116d7565b52610a15838c6116d7565b508b610a2c84610a26878501611492565b926116d7565b52610a37838d6116d7565b50610a4460028201611492565b610a4e84886116d7565b52610a5983876116d7565b506003810154610a6984896116d7565b52610a7660048201611492565b610a80848a6116d7565b52610a8b83896116d7565b50610a9860058201611492565b610aa2848b6116d7565b52610aad838a6116d7565b500154610aba828a6116d7565b52016109c3565b634e487b7160e01b5f52603160045260245ffd5b5f83815260016020526040902080545f19810191908211610b8957610b1091610afd916116aa565b5091845f52600160205260405f206116aa565b91909161069d57808203610b25575b506108c2565b600681610b338293856116eb565b610b4360018201600186016116eb565b610b5360028201600286016116eb565b60038101546003850155610b6d60048201600486016116eb565b610b7d60058201600586016116eb565b01549101558280610b1f565b634e487b7160e01b5f52601160045260245ffd5b60405162461bcd60e51b815260206004820152602160248201527f46696c6520776974682073706563696669656420434944206e6f7420666f756e6044820152601960fa1b6064820152608490fd5b9150505f528160205f205f905b838210610c115750506020610859928201018b610845565b602091925080600191548385880101520191018391610bf9565b60ff19168752506108599380151502830160200191508c9050610845565b509192905061089e565b60405162461bcd60e51b815260206004820152601e60248201527f4e6f7420617574686f72697a656420746f2064656c6574652066696c657300006044820152606490fd5b3461008e57602036600319011261008e576001600160a01b03610cb9611260565b16805f52600160205260405f2054908115610e0b57610cd78261162f565b610ce08361162f565b91610cea8461162f565b610cf385611678565b610cfc8661162f565b90610d068761162f565b92610d1088611678565b945f5b898110610d2d5750506040519750879661008a9688611325565b600190825f52816020526006610d468260405f206116aa565b50610d5081611492565b610d5a848d6116d7565b52610d65838c6116d7565b508b610d7684610a26878501611492565b52610d81838d6116d7565b50610d8e60028201611492565b610d9884886116d7565b52610da383876116d7565b506003810154610db384896116d7565b52610dc060048201611492565b610dca848a6116d7565b52610dd583896116d7565b50610de260058201611492565b610dec848b6116d7565b52610df7838a6116d7565b500154610e04828a6116d7565b5201610d13565b60405162461bcd60e51b815260206004820152601d60248201527f4e6f2066696c65732073746f72656420666f72207468697320757365720000006044820152606490fd5b3461008e57602036600319011261008e576001600160a01b03610e71611260565b16803303610fbe57805f526001602052610e9060405f2054151561157e565b805f52600160205260405f208054905f815581610f4f575b604051837fac3bda4dd8cefc7c083649cc37a6edd7fe0f6c6b19e8e8451935185b07695d985f80a260e081528061008a610f40610f31610f22610f13610f04610ef560e08801606061129a565b8781036020890152606061129a565b8681036040880152606061129a565b858103606087015260606112f2565b8481036080860152606061129a565b83810360a0850152606061129a565b82810360c084015260606112f2565b81600702916007830403610b89575f5260205f20908101905b81811015610ea857600790610f7c816115ca565b610f88600182016115ca565b610f94600282016115ca565b5f6003820155610fa6600482016115ca565b610fb2600582016115ca565b5f600682015501610f68565b60405162461bcd60e51b815260206004820152601d60248201527f4e6f7420617574686f72697a656420746f20636c6561722066696c65730000006044820152606490fd5b3461008e57602036600319011261008e576004356001600160401b03811161008e5761103390369060040161120b565b61103b6113de565b8151916001600160401b0383116104f2576110565f546113a6565b601f8111611192575b50602092601f81116001146110ec576110ce92916110b7826110dc937ff91d506d7335e83e4869a58cd98e0557cdcef6f507ba1e52725521305626d05b975f916110e1575b508160011b915f199060031b1c19161790565b5f555b604051938493604085526040850190611276565b908382036020850152611276565b0390a1005b9050830151886110a4565b601f1981165f80527f290decd9548b62a8d60345a988386fc84ba6bc95484008f6362f93160ef3e563905f5b81811061117a5750826110ce9594927ff91d506d7335e83e4869a58cd98e0557cdcef6f507ba1e52725521305626d05b976110dc9560019410611162575b5050811b015f556110ba565b8401515f1960f88460031b161c191690558780611156565b84870151835560209687019660019093019201611118565b5f80526111da907f290decd9548b62a8d60345a988386fc84ba6bc95484008f6362f93160ef3e563601f860160051c810191602087106111e0575b601f0160051c0190611530565b8361105f565b90915081906111cd565b90601f801991011681019081106001600160401b038211176104f257604052565b81601f8201121561008e578035906001600160401b0382116104f2576040519261123f601f8401601f1916602001856111ea565b8284526020838301011161008e57815f926020809301838601378301015290565b600435906001600160a01b038216820361008e57565b805180835260209291819084018484015e5f828201840152601f01601f1916010190565b9080602083519182815201916020808360051b8301019401925f915b8383106112c557505050505090565b90919293946020806112e3600193601f198682030187528951611276565b970193019301919392906112b6565b90602080835192838152019201905f5b81811061130f5750505090565b8251845260209384019390920191600101611302565b95926113959461136b6113799261135d6113879661134f6113a39d9b9760e08e818152019061129a565b8c810360208e01529061129a565b908a820360408c015261129a565b9088820360608a01526112f2565b90868203608088015261129a565b9084820360a086015261129a565b9160c08184039101526112f2565b90565b90600182811c921680156113d4575b60208310146113c057565b634e487b7160e01b5f52602260045260245ffd5b91607f16916113b5565b604051905f825f54916113f0836113a6565b80835292600181169081156114735750600114611416575b611414925003836111ea565b565b505f80805290917f290decd9548b62a8d60345a988386fc84ba6bc95484008f6362f93160ef3e5635b81831061145757505090602061141492820101611408565b602091935080600191548385890101520191019091849261143f565b6020925061141494915060ff191682840152151560051b820101611408565b9060405191825f8254926114a5846113a6565b808452936001811690811561150e57506001146114ca575b50611414925003836111ea565b90505f9291925260205f20905f915b8183106114f2575050906020611414928201015f6114bd565b60209193508060019154838589010152019101909184926114d9565b90506020925061141494915060ff191682840152151560051b8201015f6114bd565b81811061153b575050565b5f8155600101611530565b9190601f811161155557505050565b611414925f5260205f20906020601f840160051c830193106111e057601f0160051c0190611530565b1561158557565b60405162461bcd60e51b815260206004820152601c60248201527f4e6f2066696c657320657869737420666f7220746869732075736572000000006044820152606490fd5b6115d481546113a6565b90816115de575050565b81601f5f93116001146115ef575055565b8183526020832061160b91601f0160051c810190600101611530565b8082528160208120915555565b6001600160401b0381116104f25760051b60200190565b9061163982611618565b61164660405191826111ea565b8281528092611657601f1991611618565b01905f5b82811061166757505050565b80606060208093850101520161165b565b9061168282611618565b61168f60405191826111ea565b82815280926116a0601f1991611618565b0190602036910137565b80548210156116c3575f52600760205f20910201905f90565b634e487b7160e01b5f52603260045260245ffd5b80518210156116c35760209160051b010190565b9190918281146117c5576116ff83546113a6565b6001600160401b0381116104f2576117218161171b84546113a6565b84611546565b5f93601f821160011461175f5761175092939482915f926117545750508160011b915f199060031b1c19161790565b9055565b015490505f80610231565b601f198216905f5260205f2094835f5260205f20915f5b8181106117ad57509583600195969710611795575b505050811b019055565b01545f1960f88460031b161c191690555f808061178b565b9192600180602092868b015481550194019201611776565b50905056fea26469706673582212207d0acb8ef10ba26ec820d4a13706e26f0a8f9ed11e18800eb1cc4f7c2aeda4dd64736f6c634300081c0033","linkReferences":{}},"methodIdentifiers":{"clearAllFiles(address)":"3e2d2458","deleteUserFile(address,string)":"c32df85c","getFiles(address)":"433bf37b","message()":"e21f37ce","storeFileForUser(address,string,string,string,uint256,string,string,uint256)":"d4277f98","update(string)":"3d7403a3"},"id":25}