{"abi":[{"type":"constructor","inputs":[{"name":"initMessage","type":"string","internalType":"string"}],"stateMutability":"nonpayable"},{"type":"function","name":"getFiles","inputs":[{"name":"user","type":"address","internalType":"address"}],"outputs":[{"name":"","type":"tuple[]","internalType":"struct UlaloDataStore.FileDetails[]","components":[{"name":"cid","type":"string","internalType":"string"},{"name":"fileName","type":"string","internalType":"string"},{"name":"fileType","type":"string","internalType":"string"}]}],"stateMutability":"view"},{"type":"function","name":"message","inputs":[],"outputs":[{"name":"","type":"string","internalType":"string"}],"stateMutability":"view"},{"type":"function","name":"storeFile","inputs":[{"name":"cid","type":"string","internalType":"string"},{"name":"fileName","type":"string","internalType":"string"},{"name":"fileType","type":"string","internalType":"string"}],"outputs":[],"stateMutability":"nonpayable"},{"type":"function","name":"storeFileForUser","inputs":[{"name":"userAddress","type":"address","internalType":"address"},{"name":"cid","type":"string","internalType":"string"},{"name":"fileName","type":"string","internalType":"string"},{"name":"fileType","type":"string","internalType":"string"}],"outputs":[],"stateMutability":"nonpayable"},{"type":"function","name":"update","inputs":[{"name":"newMessage","type":"string","internalType":"string"}],"outputs":[],"stateMutability":"nonpayable"},{"type":"event","name":"AllDataCleared","inputs":[],"anonymous":false},{"type":"event","name":"FileStored","inputs":[{"name":"user","type":"address","indexed":true,"internalType":"address"},{"name":"cid","type":"string","indexed":false,"internalType":"string"},{"name":"fileName","type":"string","indexed":false,"internalType":"string"},{"name":"fileType","type":"string","indexed":false,"internalType":"string"}],"anonymous":false},{"type":"event","name":"UpdatedMessages","inputs":[{"name":"oldStr","type":"string","indexed":false,"internalType":"string"},{"name":"newStr","type":"string","indexed":false,"internalType":"string"}],"anonymous":false}],"bytecode":{"object":"0x608060405234801561000f575f5ffd5b50604051610ef6380380610ef683398101604081905261002e91610054565b5f6100398282610188565b5050610242565b634e487b7160e01b5f52604160045260245ffd5b5f60208284031215610064575f5ffd5b81516001600160401b03811115610079575f5ffd5b8201601f81018413610089575f5ffd5b80516001600160401b038111156100a2576100a2610040565b604051601f8201601f19908116603f011681016001600160401b03811182821017156100d0576100d0610040565b6040528181528282016020018610156100e7575f5ffd5b8160208401602083015e5f91810160200191909152949350505050565b600181811c9082168061011857607f821691505b60208210810361013657634e487b7160e01b5f52602260045260245ffd5b50919050565b601f82111561018357805f5260205f20601f840160051c810160208510156101615750805b601f840160051c820191505b81811015610180575f815560010161016d565b50505b505050565b81516001600160401b038111156101a1576101a1610040565b6101b5816101af8454610104565b8461013c565b6020601f8211600181146101e7575f83156101d05750848201515b5f19600385901b1c1916600184901b178455610180565b5f84815260208120601f198516915b8281101561021657878501518255602094850194600190920191016101f6565b508482101561023357868401515f19600387901b60f8161c191681555b50505050600190811b01905550565b610ca78061024f5f395ff3fe608060405234801561000f575f5ffd5b5060043610610055575f3560e01c80633d7403a314610059578063433bf37b1461006e578063564df119146100975780637dd77d2b146100aa578063e21f37ce146100bd575b5f5ffd5b61006c61006736600461083d565b6100d2565b005b61008161007c366004610892565b6101a9565b60405161008e91906108e0565b60405180910390f35b61006c6100a5366004610984565b6103ca565b61006c6100b8366004610a23565b610576565b6100c5610713565b60405161008e9190610ab1565b5f5f80546100df90610ac3565b80601f016020809104026020016040519081016040528092919081815260200182805461010b90610ac3565b80156101565780601f1061012d57610100808354040283529160200191610156565b820191905f5260205f20905b81548152906001019060200180831161013957829003601f168201915b50505050509050815f908161016b9190610b47565b507ff91d506d7335e83e4869a58cd98e0557cdcef6f507ba1e52725521305626d05b818360405161019d929190610c02565b60405180910390a15050565b6001600160a01b0381165f908152600160209081526040808320805482518185028101850190935280835260609492939192909184015b828210156103bf578382905f5260205f2090600302016040518060600160405290815f8201805461021090610ac3565b80601f016020809104026020016040519081016040528092919081815260200182805461023c90610ac3565b80156102875780601f1061025e57610100808354040283529160200191610287565b820191905f5260205f20905b81548152906001019060200180831161026a57829003601f168201915b505050505081526020016001820180546102a090610ac3565b80601f01602080910402602001604051908101604052809291908181526020018280546102cc90610ac3565b80156103175780601f106102ee57610100808354040283529160200191610317565b820191905f5260205f20905b8154815290600101906020018083116102fa57829003601f168201915b5050505050815260200160028201805461033090610ac3565b80601f016020809104026020016040519081016040528092919081815260200182805461035c90610ac3565b80156103a75780601f1061037e576101008083540402835291602001916103a7565b820191905f5260205f20905b81548152906001019060200180831161038a57829003601f168201915b505050505081525050815260200190600101906101e0565b505050509050919050565b5f8351116104155760405162461bcd60e51b81526020600482015260136024820152724349442063616e6e6f7420626520656d70747960681b60448201526064015b60405180910390fd5b5f8251116104615760405162461bcd60e51b815260206004820152601960248201527846696c65206e616d652063616e6e6f7420626520656d70747960381b604482015260640161040c565b5f8151116104ad5760405162461bcd60e51b815260206004820152601960248201527846696c6520747970652063616e6e6f7420626520656d70747960381b604482015260640161040c565b6001600160a01b0384165f9081526001602081815260408084208151606081018352888152808401889052918201869052805493840181558452922082516003909202019081906104fe9082610b47565b50602082015160018201906105139082610b47565b50604082015160028201906105289082610b47565b505050836001600160a01b03167ff1ba2ca2c8ff80af5db7f1cb4017a2cc0b94767c82f2bb94a025319d28c796a684848460405161056893929190610c2f565b60405180910390a250505050565b5f8351116105bc5760405162461bcd60e51b81526020600482015260136024820152724349442063616e6e6f7420626520656d70747960681b604482015260640161040c565b5f8251116106085760405162461bcd60e51b815260206004820152601960248201527846696c65206e616d652063616e6e6f7420626520656d70747960381b604482015260640161040c565b5f8151116106545760405162461bcd60e51b815260206004820152601960248201527846696c6520747970652063616e6e6f7420626520656d70747960381b604482015260640161040c565b335f90815260016020818152604080842081516060810183528881528084018890529182018690528054938401815584529220825160039092020190819061069c9082610b47565b50602082015160018201906106b19082610b47565b50604082015160028201906106c69082610b47565b505050336001600160a01b03167ff1ba2ca2c8ff80af5db7f1cb4017a2cc0b94767c82f2bb94a025319d28c796a684848460405161070693929190610c2f565b60405180910390a2505050565b5f805461071f90610ac3565b80601f016020809104026020016040519081016040528092919081815260200182805461074b90610ac3565b80156107965780601f1061076d57610100808354040283529160200191610796565b820191905f5260205f20905b81548152906001019060200180831161077957829003601f168201915b505050505081565b634e487b7160e01b5f52604160045260245ffd5b5f82601f8301126107c1575f5ffd5b813567ffffffffffffffff8111156107db576107db61079e565b604051601f8201601f19908116603f0116810167ffffffffffffffff8111828210171561080a5761080a61079e565b604052818152838201602001851015610821575f5ffd5b816020850160208301375f918101602001919091529392505050565b5f6020828403121561084d575f5ffd5b813567ffffffffffffffff811115610863575f5ffd5b61086f848285016107b2565b949350505050565b80356001600160a01b038116811461088d575f5ffd5b919050565b5f602082840312156108a2575f5ffd5b6108ab82610877565b9392505050565b5f81518084528060208401602086015e5f602082860101526020601f19601f83011685010191505092915050565b5f602082016020835280845180835260408501915060408160051b8601019250602086015f5b8281101561097857603f19878603018452815180516060875261092c60608801826108b2565b90506020820151878203602089015261094582826108b2565b91505060408201519150868103604088015261096181836108b2565b965050506020938401939190910190600101610906565b50929695505050505050565b5f5f5f5f60808587031215610997575f5ffd5b6109a085610877565b9350602085013567ffffffffffffffff8111156109bb575f5ffd5b6109c7878288016107b2565b935050604085013567ffffffffffffffff8111156109e3575f5ffd5b6109ef878288016107b2565b925050606085013567ffffffffffffffff811115610a0b575f5ffd5b610a17878288016107b2565b91505092959194509250565b5f5f5f60608486031215610a35575f5ffd5b833567ffffffffffffffff811115610a4b575f5ffd5b610a57868287016107b2565b935050602084013567ffffffffffffffff811115610a73575f5ffd5b610a7f868287016107b2565b925050604084013567ffffffffffffffff811115610a9b575f5ffd5b610aa7868287016107b2565b9150509250925092565b602081525f6108ab60208301846108b2565b600181811c90821680610ad757607f821691505b602082108103610af557634e487b7160e01b5f52602260045260245ffd5b50919050565b601f821115610b4257805f5260205f20601f840160051c81016020851015610b205750805b601f840160051c820191505b81811015610b3f575f8155600101610b2c565b50505b505050565b815167ffffffffffffffff811115610b6157610b6161079e565b610b7581610b6f8454610ac3565b84610afb565b6020601f821160018114610ba7575f8315610b905750848201515b5f19600385901b1c1916600184901b178455610b3f565b5f84815260208120601f198516915b82811015610bd65787850151825560209485019460019092019101610bb6565b5084821015610bf357868401515f19600387901b60f8161c191681555b50505050600190811b01905550565b604081525f610c1460408301856108b2565b8281036020840152610c2681856108b2565b95945050505050565b606081525f610c4160608301866108b2565b8281036020840152610c5381866108b2565b90508281036040840152610c6781856108b2565b969550505050505056fea264697066735822122092be7de30ecc00ca34bcd527f6c4657eea6208299424ae15f510c0cd19bbd99e64736f6c634300081c0033","linkReferences":{}},"methodIdentifiers":{"getFiles(address)":"433bf37b","message()":"e21f37ce","storeFile(string,string,string)":"7dd77d2b","storeFileForUser(address,string,string,string)":"564df119","update(string)":"3d7403a3"},"id":25}