{"abi":[{"type":"constructor","inputs":[{"name":"initMessage","type":"string","internalType":"string"}],"stateMutability":"nonpayable"},{"type":"function","name":"clearAllFiles","inputs":[{"name":"userAddress","type":"address","internalType":"address"}],"outputs":[{"name":"","type":"string[]","internalType":"string[]"},{"name":"","type":"string[]","internalType":"string[]"},{"name":"","type":"string[]","internalType":"string[]"},{"name":"","type":"uint256[]","internalType":"uint256[]"},{"name":"","type":"string[]","internalType":"string[]"},{"name":"","type":"string[]","internalType":"string[]"},{"name":"","type":"uint256[]","internalType":"uint256[]"}],"stateMutability":"nonpayable"},{"type":"function","name":"deleteUserFile","inputs":[{"name":"userAddress","type":"address","internalType":"address"},{"name":"index","type":"uint256","internalType":"uint256"},{"name":"cid","type":"string","internalType":"string"}],"outputs":[{"name":"cids","type":"string[]","internalType":"string[]"},{"name":"fileNames","type":"string[]","internalType":"string[]"},{"name":"fileTypes","type":"string[]","internalType":"string[]"},{"name":"fileSizes","type":"uint256[]","internalType":"uint256[]"},{"name":"fileContents","type":"string[]","internalType":"string[]"},{"name":"dates","type":"string[]","internalType":"string[]"},{"name":"scores","type":"uint256[]","internalType":"uint256[]"}],"stateMutability":"nonpayable"},{"type":"function","name":"getFiles","inputs":[{"name":"user","type":"address","internalType":"address"}],"outputs":[{"name":"cids","type":"string[]","internalType":"string[]"},{"name":"fileNames","type":"string[]","internalType":"string[]"},{"name":"fileTypes","type":"string[]","internalType":"string[]"},{"name":"fileSizes","type":"uint256[]","internalType":"uint256[]"},{"name":"fileContents","type":"string[]","internalType":"string[]"},{"name":"dates","type":"string[]","internalType":"string[]"},{"name":"scores","type":"uint256[]","internalType":"uint256[]"}],"stateMutability":"view"},{"type":"function","name":"message","inputs":[],"outputs":[{"name":"","type":"string","internalType":"string"}],"stateMutability":"view"},{"type":"function","name":"storeFileForUser","inputs":[{"name":"userAddress","type":"address","internalType":"address"},{"name":"cid","type":"string","internalType":"string"},{"name":"fileName","type":"string","internalType":"string"},{"name":"fileType","type":"string","internalType":"string"},{"name":"fileSize","type":"uint256","internalType":"uint256"},{"name":"fileContent","type":"string","internalType":"string"},{"name":"date","type":"string","internalType":"string"},{"name":"score","type":"uint256","internalType":"uint256"}],"outputs":[],"stateMutability":"nonpayable"},{"type":"function","name":"update","inputs":[{"name":"newMessage","type":"string","internalType":"string"}],"outputs":[],"stateMutability":"nonpayable"},{"type":"event","name":"AllDataCleared","inputs":[],"anonymous":false},{"type":"event","name":"AllFilesCleared","inputs":[{"name":"userAddress","type":"address","indexed":true,"internalType":"address"}],"anonymous":false},{"type":"event","name":"FileDeleted","inputs":[{"name":"userAddress","type":"address","indexed":true,"internalType":"address"},{"name":"cid","type":"string","indexed":false,"internalType":"string"},{"name":"index","type":"uint256","indexed":false,"internalType":"uint256"}],"anonymous":false},{"type":"event","name":"FileStored","inputs":[{"name":"user","type":"address","indexed":true,"internalType":"address"},{"name":"cid","type":"string","indexed":false,"internalType":"string"},{"name":"fileName","type":"string","indexed":false,"internalType":"string"},{"name":"fileType","type":"string","indexed":false,"internalType":"string"},{"name":"fileSize","type":"uint256","indexed":false,"internalType":"uint256"},{"name":"fileContent","type":"string","indexed":false,"internalType":"string"},{"name":"date","type":"string","indexed":false,"internalType":"string"},{"name":"score","type":"uint256","indexed":false,"internalType":"uint256"}],"anonymous":false},{"type":"event","name":"UpdatedMessages","inputs":[{"name":"oldStr","type":"string","indexed":false,"internalType":"string"},{"name":"newStr","type":"string","indexed":false,"internalType":"string"}],"anonymous":false}],"bytecode":{"object":"0x6080604052346101f45761189b80380380610019816101f8565b9283398101906020818303126101f4578051906001600160401b0382116101f4570181601f820112156101f4578051906001600160401b0382116101e05761006a601f8301601f19166020016101f8565b92828452602083830101116101f457815f9260208093018386015e8301015280516001600160401b0381116101e0575f54600181811c911680156101d6575b60208210146101c257601f8111610160575b50602091601f8211600114610102579181925f926100f7575b50508160011b915f199060031b1c1916175f555b60405161167d908161021e8239f35b015190505f806100d4565b601f198216925f8052805f20915f5b85811061014857508360019510610130575b505050811b015f556100e8565b01515f1960f88460031b161c191690555f8080610123565b91926020600181928685015181550194019201610111565b5f80527f290decd9548b62a8d60345a988386fc84ba6bc95484008f6362f93160ef3e563601f830160051c810191602084106101b8575b601f0160051c01905b8181106101ad57506100bb565b5f81556001016101a0565b9091508190610197565b634e487b7160e01b5f52602260045260245ffd5b90607f16906100a9565b634e487b7160e01b5f52604160045260245ffd5b5f80fd5b6040519190601f01601f191682016001600160401b038111838210176101e05760405256fe60806040526004361015610011575f80fd5b5f3560e01c80633d7403a314610eaa5780633e2d245814610db3578063433bf37b14610bc757806345e660c914610930578063d4277f98146100925763e21f37ce1461005b575f80fd5b3461008e575f36600319011261008e5761008a61007661127b565b604051918291602083526020830190611113565b0390f35b5f80fd5b3461008e5761010036600319011261008e576100ac6110fd565b6024356001600160401b03811161008e576100cb9036906004016110a8565b6044356001600160401b03811161008e576100ea9036906004016110a8565b916064356001600160401b03811161008e5761010a9036906004016110a8565b60843560a4356001600160401b03811161008e5761012c9036906004016110a8565b60c4356001600160401b03811161008e5761014b9036906004016110a8565b9260e435948651156108f5578751156108b05781511561086b5760018060a01b031696875f52600160205260405f2060405161010081018181106001600160401b0382111761054c57604052888152602081018381526040820185815260608301888152608084019088825260a08501928b845260c08601948d865260e08701976001895280546801000000000000000081101561054c576101f291600182018155611406565b97909761085857518051906001600160401b03821161054c5781906102178a54611243565b601f8111610808575b50602090601f83116001146107a5575f9261079a575b50508160011b915f199060031b1c19161787555b51805160018801916001600160401b03821161054c57819061026c8454611243565b601f811161074a575b50602090601f83116001146106e7575f926106dc575b50508160011b915f199060031b1c19161790555b51805160028701916001600160401b03821161054c5781906102c18454611243565b601f811161068c575b50602090601f8311600114610629575f9261061e575b50508160011b915f199060031b1c19161790555b51600385015551805160048501916001600160401b03821161054c57819061031c8454611243565b601f81116105ce575b50602090601f831160011461056b575f92610560575b50508160011b915f199060031b1c19161790555b51805160058401916001600160401b03821161054c5761036f8354611243565b601f8111610507575b50602090601f83116001146104635795600761044d9a967fad8603a3fe1d55f26ce13346f2c7f31f8624ac0b9cf6f1a0586469eec64732409f9d9a95966104109f9d99978661041e9761043f9d9761042c9b5f92610458575b50508160011b915f199060031b1c19161790555b516006820155019051151560ff801983541691161790556040519b8c9b60e08d5260e08d0190611113565b908b820360208d0152611113565b9089820360408b0152611113565b9160608801528682036080880152611113565b9084820360a0860152611113565b9060c08301520390a2005b015190505f806103d1565b90601f19831691845f52815f20925f5b8181106104ef5750967fad8603a3fe1d55f26ce13346f2c7f31f8624ac0b9cf6f1a0586469eec64732409f9d9a95966104109f9d99939760018761044d9f9b9761042c9b61043f9f999761041e9b600799106104d7575b505050811b0190556103e5565b01515f1960f88460031b161c191690555f80806104ca565b92936020600181928786015181550195019301610473565b835f5260205f20601f840160051c81019160208510610542575b601f0160051c01905b8181106105375750610378565b5f815560010161052a565b9091508190610521565b634e487b7160e01b5f52604160045260245ffd5b015190508f8061033b565b5f8581528281209350601f198516905b8181106105b6575090846001959493921061059e575b505050811b01905561034f565b01515f1960f88460031b161c191690558f8080610591565b9293602060018192878601518155019501930161057b565b909150835f5260205f20601f840160051c81019160208510610614575b90601f859493920160051c01905b8181106106065750610325565b5f81558493506001016105f9565b90915081906105eb565b015190505f806102e0565b5f8581528281209350601f198516905b818110610674575090846001959493921061065c575b505050811b0190556102f4565b01515f1960f88460031b161c191690555f808061064f565b92936020600181928786015181550195019301610639565b909150835f5260205f20601f840160051c810191602085106106d2575b90601f859493920160051c01905b8181106106c457506102ca565b5f81558493506001016106b7565b90915081906106a9565b015190505f8061028b565b5f8581528281209350601f198516905b818110610732575090846001959493921061071a575b505050811b01905561029f565b01515f1960f88460031b161c191690555f808061070d565b929360206001819287860151815501950193016106f7565b909150835f5260205f20601f840160051c81019160208510610790575b90601f859493920160051c01905b8181106107825750610275565b5f8155849350600101610775565b9091508190610767565b015190505f80610236565b5f8b81528281209350601f198516905b8181106107f057509084600195949392106107d8575b505050811b01875561024a565b01515f1960f88460031b161c191690555f80806107cb565b929360206001819287860151815501950193016107b5565b909150895f5260205f20601f840160051c8101916020851061084e575b90601f859493920160051c01905b8181106108405750610220565b5f8155849350600101610833565b9091508190610825565b634e487b7160e01b5f525f60045260245ffd5b60405162461bcd60e51b815260206004820152601960248201527f46696c6520747970652063616e6e6f7420626520656d707479000000000000006044820152606490fd5b60405162461bcd60e51b815260206004820152601960248201527f46696c65206e616d652063616e6e6f7420626520656d707479000000000000006044820152606490fd5b60405162461bcd60e51b81526020600482015260136024820152724349442063616e6e6f7420626520656d70747960681b6044820152606490fd5b3461008e57606036600319011261008e576109496110fd565b6024356044356001600160401b03811161008e5761096b9036906004016110a8565b916001600160a01b03811633819003610b8257805f52600160205260405f20546109968115156113ba565b831015610b4d57805f5260016020526109b28360405f20611406565b506040516020810191815f8254926109c984611243565b9360018116908115610b2f5750600114610af0575b506109f2925003601f198101835282611087565b5190206040516020810190610a21602082895180838c01875e81015f838201520301601f198101835282611087565b51902003610aab577f4f290849018eb780affafba63563006086546149769e7b527f0e61c4f282de07610a8a61008a95610a9895845f5260016020526007610a6c8260405f20611406565b500160ff198154169055604051928392604084526040840190611113565b9060208301520390a26114fb565b93604097959793919351978897886111c2565b60405162461bcd60e51b815260206004820152601760248201527f46696c652043494420646f6573206e6f74206d617463680000000000000000006044820152606490fd5b9150505f528160205f205f905b838210610b1557505060206109f292820101896109de565b602091925080600191548385880101520191018391610afd565b60ff19168752506109f29380151502830160200191508a90506109de565b60405162461bcd60e51b815260206004820152600d60248201526c092dcecc2d8d2c840d2dcc8caf609b1b6044820152606490fd5b60405162461bcd60e51b815260206004820152601e60248201527f4e6f7420617574686f72697a656420746f2064656c6574652066696c657300006044820152606490fd5b3461008e57602036600319011261008e576001600160a01b03610be86110fd565b165f8181526001602052604081205491815b838110610d755750610c0b8261146c565b90610c158361146c565b92610c1f8161146c565b610c28826114b5565b610c318361146c565b91610c44610c3e8561146c565b946114b5565b945f905f5b8a8110610c665750505061008a95969750604051978897886111c2565b815f526001602052888a60ff6007610c818560405f20611406565b50015416610c94575b5050600101610c49565b936006610d6b92610ce28360019698885f5287602052610cd682610cbb8c60405f20611406565b5095610cc68761131c565b610cd083836114e7565b526114e7565b50610cc688850161131c565b50610cef6002820161131c565b610cf9848a6114e7565b52610d0483896114e7565b506003810154610d14848b6114e7565b52610d216004820161131c565b610d2b848c6114e7565b52610d36838b6114e7565b50610d436005820161131c565b610d4d848d6114e7565b52610d58838c6114e7565b500154610d65828c6114e7565b52611433565b929050888a610c8a565b815f52600160205260ff6007610d8e8360405f20611406565b50015416610d9f575b600101610bfa565b91610dab600191611433565b929050610d97565b3461008e57602036600319011261008e57610dcc6110fd565b6001600160a01b03811633819003610e6557805f526001602052610df560405f205415156113ba565b805f52600160205260405f20545f5b818110610e3c5761008a610a9885857fac3bda4dd8cefc7c083649cc37a6edd7fe0f6c6b19e8e8451935185b07695d985f80a26114fb565b600190835f52816020526007610e558260405f20611406565b5001805460ff1916905501610e04565b60405162461bcd60e51b815260206004820152601d60248201527f4e6f7420617574686f72697a656420746f20636c6561722066696c65730000006044820152606490fd5b3461008e57602036600319011261008e576004356001600160401b03811161008e57610eda9036906004016110a8565b610ee261127b565b8151916001600160401b03831161054c57610efd5f54611243565b601f8111611020575b50602092601f8111600114610f8d57610f6f929181610f7d927ff91d506d7335e83e4869a58cd98e0557cdcef6f507ba1e52725521305626d05b965f91610f82575b508160011b915f199060031b1c1916175f555b604051938493604085526040850190611113565b908382036020850152611113565b0390a1005b905082015187610f48565b601f1981165f80525f5160206116285f395f51905f52905f5b818110611008575082610f6f9594927ff91d506d7335e83e4869a58cd98e0557cdcef6f507ba1e52725521305626d05b97610f7d9560019410610ff0575b5050811b015f55610f5b565b8401515f1960f88460031b161c191690558780610fe4565b84870151835560209687019660019093019201610fa6565b5f8052601f840160051c5f5160206116285f395f51905f52019060208510611072575b601f0160051c5f5160206116285f395f51905f5201905b8181106110675750610f06565b5f815560010161105a565b5f5160206116285f395f51905f529150611043565b90601f801991011681019081106001600160401b0382111761054c57604052565b81601f8201121561008e578035906001600160401b03821161054c57604051926110dc601f8401601f191660200185611087565b8284526020838301011161008e57815f926020809301838601378301015290565b600435906001600160a01b038216820361008e57565b805180835260209291819084018484015e5f828201840152601f01601f1916010190565b9080602083519182815201916020808360051b8301019401925f915b83831061116257505050505090565b9091929394602080611180600193601f198682030187528951611113565b97019301930191939290611153565b90602080835192838152019201905f5b8181106111ac5750505090565b825184526020938401939092019160010161119f565b959261123294611208611216926111fa611224966111ec6112409d9b9760e08e8181520190611137565b8c810360208e015290611137565b908a820360408c0152611137565b9088820360608a015261118f565b908682036080880152611137565b9084820360a0860152611137565b9160c081840391015261118f565b90565b90600182811c92168015611271575b602083101461125d57565b634e487b7160e01b5f52602260045260245ffd5b91607f1691611252565b604051905f825f549161128d83611243565b80835292600181169081156112fd57506001146112b3575b6112b192500383611087565b565b505f80805290915f5160206116285f395f51905f525b8183106112e15750509060206112b1928201016112a5565b60209193508060019154838589010152019101909184926112c9565b602092506112b194915060ff191682840152151560051b8201016112a5565b9060405191825f82549261132f84611243565b80845293600181169081156113985750600114611354575b506112b192500383611087565b90505f9291925260205f20905f915b81831061137c5750509060206112b1928201015f611347565b6020919350806001915483858901015201910190918492611363565b9050602092506112b194915060ff191682840152151560051b8201015f611347565b156113c157565b60405162461bcd60e51b815260206004820152601c60248201527f4e6f2066696c657320657869737420666f7220746869732075736572000000006044820152606490fd5b805482101561141f575f5260205f209060031b01905f90565b634e487b7160e01b5f52603260045260245ffd5b5f1981146114415760010190565b634e487b7160e01b5f52601160045260245ffd5b6001600160401b03811161054c5760051b60200190565b9061147682611455565b6114836040519182611087565b8281528092611494601f1991611455565b01905f5b8281106114a457505050565b806060602080938501015201611498565b906114bf82611455565b6114cc6040519182611087565b82815280926114dd601f1991611455565b0190602036910137565b805182101561141f5760209160051b010190565b6001600160a01b03165f818152600160205260409020549161151c8361146c565b6115258461146c565b9361152f8161146c565b93611539826114b5565b936115438361146c565b9361154d8461146c565b93611557816114b5565b93885f5b8b858583106115735750505050505096959493929190565b6115bd836001956115b0826006968a5f52896020526115a4826115998160405f20611406565b5098610cc68a61131c565b50610cc68a880161131c565b50610cc66002850161131c565b5060038101546115cd848e6114e7565b526115da6004820161131c565b6115e4848d6114e7565b526115ef838c6114e7565b506115fc6005820161131c565b611606848c6114e7565b52611611838b6114e7565b50015461161e82896114e7565b5201899061155b56fe290decd9548b62a8d60345a988386fc84ba6bc95484008f6362f93160ef3e563a2646970667358221220e1fa467866fe2b3f501d618825875aae24bf6d1480747f62575f40ef4734d43f64736f6c634300081c0033","linkReferences":{}},"methodIdentifiers":{"clearAllFiles(address)":"3e2d2458","deleteUserFile(address,uint256,string)":"45e660c9","getFiles(address)":"433bf37b","message()":"e21f37ce","storeFileForUser(address,string,string,string,uint256,string,string,uint256)":"d4277f98","update(string)":"3d7403a3"},"id":25}